:100000000C94B0070C94D8070C94D8070C946A2869
:100010000C9494280C94BE280C94D8070C94D80700
:100020000C94D8070C94D8070C94D8070C94D807D4
:100030000C94D8070C94D8070C94D8070C94D807C4
:100040000C9415130C94D8070C9493140C94E1148D
:100050000C94D8070C94D8070C94D8070C94D807A4
:100060000C94D8070C94D80708000000BE922449CD
:10007000123EABAAAA2ABECDCCCC4C3E00000080DA
:10008000BEABAAAAAA3E00000000BF000000803F4D
:100090000000000000084178D3BB4387D1133D190D
:1000A0000E3CC3BD4282AD2B3E68EC8276BED98F3A
:1000B000E1A93E4C80EFFFBE01C4FF7F3F0000007E
:1000C00000003C2F626F64793E3C2F68746D6C3E7B
:1000D000003C68723E003C68313E4E6F7420466FB3
:1000E000756E643C2F68313E003C2F686561643E4C
:1000F0003C626F64793E003C7469746C653E3430D8
:1001000034204E6F7420466F756E643C2F74697492
:100110006C653E003C68746D6C3E3C686561643E95
:10012000005472616E736665722D456E636F64690B
:100130006E673A206368756E6B656400436F6E741A
:10014000656E742D547970653A20746578742F68E3
:10015000746D6C00485454502F312E31203430349B
:10016000204E6F7420466F756E64003C2F6461747E
:1001700061636F6C6C6563746F723E003C2F7365D6
:100180006E736F72733E003C73656E736F723E3CAC
:10019000747970653E70726573737572653C2F7407
:1001A0007970653E3C76616C75653E25733C2F76B3
:1001B000616C75653E3C2F73656E736F723E003CDB
:1001C00073656E736F723E3C747970653E68756DD1
:1001D00069646974793C2F747970653E3C76616C12
:1001E00075653E25733C2F76616C75653E3C2F73BB
:1001F000656E736F723E003C73656E736F723E3C4A
:10020000747970653E6C696768743C2F74797065A9
:100210003E3C76616C75653E25733C2F76616C754E
:10022000653E3C2F73656E736F723E003C73656E66
:10023000736F723E3C747970653E74656D703C2FCF
:10024000747970653E3C76616C75653E25733C2F14
:1002500076616C75653E3C2F73656E736F723E0000
:100260003C73656E736F72733E003C2F67656F6CF5
:100270006F633E003C2F61703E003C6D61633E2524
:10028000733C2F6D61633E003C727373693E25734E
:100290003C2F727373693E003C6368616E6E656CDF
:1002A0003E25733C2F6368616E6E656C3E003C6159
:1002B000703E003C67656F6C6F633E003C64636931
:1002C000643E25733C2F646369643E003C64617442
:1002D00061636F6C6C6563746F723E003C3F786D58
:1002E0006C2076657273696F6E3D22312E3022204C
:1002F000656E636F64696E673D225554462D3822E2
:100300003F3E005472616E736665722D456E636F79
:1003100064696E673A206368756E6B656400436F4D
:100320006E74656E742D547970653A2074657874B6
:100330002F786D6C00485454502F312E31203230BC
:1003400030204F4B003C706F6E673E25733C2F7022
:100350006F6E673E003C3F786D6C20766572736906
:100360006F6E3D22312E302220656E636F64696EA0
:10037000673D225554462D38223F3E005472616E2F
:10038000736665722D456E636F64696E673A2063AC
:1003900068756E6B656400436F6E74656E742D5482
:1003A0007970653A20746578742F786D6C004854C4
:1003B00054502F312E3120323030204F4B005365B6
:1003C0006E64696E672034303400556E65787065F0
:1003D000637465643A200044415441434F4C4C459A
:1003E00043544F5220584D4C3A2073656E64696EE9
:1003F000642073656E736F7273206461746100476B
:100400004554202F6461746100504F4E4720584D71
:100410004C2072657175657374656400474554209E
:100420002F70696E670052656164790053657420AE
:10043000706F727420746F2038302C207265626F78
:100440006F74696E6720746F206D616B65206974CD
:1004500020776F726B004F6C6420636F6E6E656304
:1004600074696F6E206163746976652E20436C6FCA
:1004700073696E670049503A20004D41433A2000AD
:10048000416C7265616479206A6F696E6564206E83
:100490006574776F726B004661696C656420746F78
:1004A000206A6F696E2077696669206E6574776F60
:1004B000726B004A6F696E65642077696669206EA9
:1004C0006574776F726B004A6F696E696E67206E34
:1004D0006574776F726B0025732062203133202D95
:1004E000373120632030303A31633A35383A313091
:1004F0003A31633A3930207C20612062203130204B
:100500002D393320632030303A31323A34333A389F
:10051000613A65613A3232207C20612062203131BB
:10052000202D393220632064383A33303A36323A5B
:1005300035663A66323A6231004661696C6564201C
:10054000746F207374617274207769666C790046E9
:10055000726565206D656D6F72793A200053746124
:100560007274696E670000000000240027002A00F2
:1005700000000000250028002B00000000002300E0
:1005800026002900040404040404040402020202F4
:100590000202030303030303010204081020408046
:1005A00001020408102001020408102000000007C6
:1005B000000201000003040600000000000000002B
:1005C000636C6F73653A206661696C65642C206E9C
:1005D0006F202A434C4F532A00636C6F73653A2097
:1005E000676F74202A434C4F532A002A434C4F53C1
:1005F0002A00636C6F73650D005465726D696E61DE
:100600006C20726561647900556E657870656374FD
:10061000656420726573703A20004661696C656498
:1006200020746F20636F6E6E6563743A20004F50C4
:10063000454E2A00656E61626C65486F7374526541
:1006400073746F72653A2073746F72656420003042
:100650002E302E302E300073656E64746F3A206633
:1006600061696C656420746F2073746172742063B7
:100670006F6D6D616E64003C74696D656F75743E7D
:1006800000556E6578706563746564206368617297
:100690003A20004661696C656420746F20636F6E58
:1006A0006E6563743A20004F50454E2A00576946E4
:1006B0006C7920686173206372617368656420617E
:1006C0006E642077696C6C207265626F6F742E2E79
:1006D0002E004661696C656420746F206765742024
:1006E00070726F6D7074000D006F70656E20006F1A
:1006F00070656E20003235352E3235352E302E3075
:10070000003136392E3235342E312E310036342038
:1007100062797465730050696E6720747279007035
:10072000696E67200073657420752069006C6561CF
:1007300076650D0047573D000D006A6F696E200019
:100740004173736F63696174656421004641494C6C
:10075000454400736574206164686F632070726F34
:10076000626500736574206164686F63206265610F
:10077000636F6E0073657420776C616E207478000F
:1007800040420F000080841E000160EC5300028094
:100790008D5B00084054890009C0D8A70003001BE6
:1007A000B7000A80A812010B00366E010C0051251B
:1007B000020D006CDC020E80F937030F73657420A4
:1007C000776C616E207261746500736574206F7060
:1007D00074207265706C6163650073657420776C5A
:1007E000616E207068726173650073657420776C48
:1007F000616E206B65790073657420776C616E2083
:100800006368616E0073657420776C616E2073732A
:1008100069640073657420776C616E206869646533
:100820002031007365742073797320696F66756E6B
:10083000630073657420636F6D6D2073697A650062
:1008400073657420636F6D6D206D617463680073F0
:10085000657420636F6D6D2074696D6500302E3096
:100860002E302E30007365742062726F6164636194
:10087000737420696E74657276616C0073657420A0
:1008800075617274206D6F6465007365742074699E
:100890006D6520656E61626C6500736574207469B6
:1008A0006D65207A6F6E65007365742074696D657F
:1008B00020706F7274007365742074696D652061B7
:1008C000646472657373007365742069702070725C
:1008D0006F746F636F6C0073657420697020707241
:1008E0006F746F636F6C0073657420697020646847
:1008F00063700073657420646E7320616464726554
:100900007373007365742069702067617465776123
:100910007900736574206970206E65746D61736B06
:1009200000736574206970206E65746D61736B006F
:10093000536574486F73743A206661696C6564200E
:10094000746F20737461727420636F6D6D616E6477
:10095000007365742069702072656D6F7465007333
:10096000657420697020686F737400736574206902
:100970007020686F737400736574206970206C6FE9
:1009800063616C706F7274007365742069702061AC
:1009900064647265737300736574206970206164A8
:1009A00064726573730073657420776C616E206A7E
:1009B0006F696E00736574206F2064005365742046
:1009C000466163746F72792044656661756C7473F7
:1009D00000666163746F727920524553544F5245DB
:1009E0000D002A5265626F6F742A007265626F6F24
:1009F000740D0053746F72696E6700736176650DD4
:100A0000003C74696D656F75743E004552523A2022
:100A100000414F4B0D0A004552523A200001554407
:100A2000502C0000025443502C0000045345435501
:100A30005200085443505F430010485454502C0057
:100A4000205241572C000040534D54502C00534528
:100A500052564552004341434845004155544F4981
:100A600050004F4E004F4646006C6F6F6B75702004
:100A700000676574436F6E3A205443502064697375
:100A8000636F6E6E656374656400676574436F6E53
:100A90003A2054435020636F6E6E65637465640042
:100AA00073686F7720630D00676574436F6E3A203B
:100AB0006661696C656420746F2073746172740080
:100AC0005343414E3A466F756E6420007363616E06
:100AD000203530300D007363616E3A20737461729B
:100AE000746564004661696C656420746F20657884
:100AF00069740A0D00455849540D0A0065786974F7
:100B00000D00434D440D0A0024242400434D440DA0
:100B10000A002424240073657450726F6D70742071
:100B20006661696C6564006D756C74694D617463B0
:100B3000685F503A20006D617463685F503A20002E
:100B40007265616454696D656F7574202D207469D8
:100B50006D6564206F7574003A20003A200064656A
:100B60006275672064756D7000617661696C6162A1
:100B70006C653A207065656B203D20002A4F50451A
:100B80004E2A002A434C4F532A004552524F5220BE
:100B90007065656B2E3220627566666572206F76B1
:100BA00065726C6F77004552524F52207065656BCD
:100BB0002E3120627566666572206F7665726C6F85
:100BC00077004661696C656420746F20657869748C
:100BD00020636F6D6D616E64206D6F6465004661AA
:100BE000696C656420746F20656E74657220636F34
:100BF0006D6D616E64206D6F6465004661696C6542
:100C00006420746F2073657420636F6D6D2072654E
:100C10006D6F74650073657420636F6D6D20726510
:100C20006D6F74652030004661696C656420746F77
:100C3000207475726E206F666620737973207072EF
:100C4000696E740073657420737973207072696EB5
:100C5000746C766C2030004661696C656420746F3A
:100C6000207475726E206F6666206563686F00730E
:100C700065742075206D2031006765742069700DE2
:100C80000049503D004E4D3D0047573D006765749B
:100C9000206D61630D004D616320416464723D000D
:100CA00067657420776C616E0D00535349443D00B5
:100CB000676574206F70740D0044657669636549DB
:100CC000643D0067657420750D0042617564726152
:100CD00074653D0073686F772074696D650D00540D
:100CE000696D653D00557054696D653D00676574BB
:100CF0002074696D650D005A6F6E653D00676574FF
:100D000020646E730D00416464726573733D0073FB
:100D1000686F77207420740D005254433D0044489E
:100D200043503D004D6F64653D0067657420636FFF
:100D30006D6D0D00466C75736854696D65723D008C
:100D40004D61746368436861723D00466C757368F9
:100D500053697A653D0073686F7720727373690D0C
:100D600000525353493D282D00464C4147533D30D6
:100D70007800484F53543D0050524F544F3D006748
:100D80006574206164686F630D00426561636F6E16
:100D90003D0050726F62653D005265626F6F743D39
:100DA000004A6F696E3D00526174653D0054785091
:100DB0006F7765723D005265706C6163653D000040
:100DC000C201000100110011000C0000E100000A46
:100DD0000025002500210000960000190039003987
:100DE000003600127A00001F0046004600440080D2
:100DF00070000022004D004D004A00004B000036FC
:100E000000750075007200403800004A009C009C8C
:100E1000009900802500007200EC00EC00E900C0A1
:100E2000120000E900DA01DA01D70160090000D7F9
:100E300001B603B603B303B0040000B3036E076E3C
:100E4000076B07580200006E07DC0EDC0ED80E2C74
:100E5000010000DC0EC11DC11DBE1D00407A10F353
:100E60005A00A0724E18090010A5D4E80000E876D8
:100E700048170000E40B54020000CA9A3B0000002F
:100E8000E1F505000080969800000040420F000048
:100E900000A08601000000102700000000E8030009
:100EA0000000006400000000000A000000000001D3
:100EB00000000000002C76D888DC674F0823DFC1D3
:100EC000DFAE59E1B1B796E5E3E453C63AE651998E
:100ED0007696E8E6C28426EB898C9B62ED407C6FB7
:100EE000FCEFBC9C9F40F2BAA56FA5F490055A2A6E
:100EF000F75C936B6CF9676DC11BFCE0E40D47FE7A
:100F0000F520E6B500D0ED902E030094357705006E
:100F100080841E080000204E0A000000C80C3333F5
:100F200033330F986E12831141EF8D2114893BE604
:100F30005516CFFEE6DB18D1844B381BF77C1D908D
:100F40001DA4BBE424203284725E228100C9F124F6
:100F5000ECA1E53D2700EF0D4D16AF16241BE80D63
:100F600011241FBECFEFD8E0DEBFCDBF11E0A0E05F
:100F7000B1E0EEE4FDE502C005900D92AE3FB10791
:100F8000D9F716E0AEEFB1E001C01D92AF33B10763
:100F9000E1F71FE0CEE5DFE004C02297FE010E94EA
:100FA000962EC635D107C9F70E9400170C94190870
:100FB0000C940000EF92FF920F931F93F22FF02EEC
:100FC00047FD02C0E4E001C0E4E1242F332727FD00
:100FD000309537FF03C0309521953F4F4F2D512F4E
:100FE0000F2FEE2E0E94C50A8F2D912F1F910F916A
:100FF000FF90EF900895FC0188279927E8942191AC
:101000002032E9F3293010F02E30C8F32B3241F0B2
:101010002D3239F4689404C00E94AF08820F911DEC
:10102000219120532A30C0F31EF4909581959F4F53
:101030000895F8940C949A2EFC0105900020E9F78D
:10104000809590958E0F9F1F0895FB01DC01415004
:10105000504030F08D910590801919F40020B9F7B7
:10106000881B990B0895FB01DC014150504048F06A
:1010700005900D920020C9F701C01D9241505040CB
:10108000E0F70895FB01DC010D900020E9F71197CE
:1010900001900D920020E1F70895FB01DC01019021
:1010A0000D920020E1F70895FB01DC014150504012
:1010B00048F001900D920020C9F701C01D924150E7
:1010C0005040E0F70895FB0151915523A9F0BF016D
:1010D000DC014D9145174111E1F759F4CD01019023
:1010E000002049F04D9140154111C9F3FB01411118
:1010F000EFCF81E090E001970895009731F4DA0195
:101100008D919C91009709F40EC0DC01FB013D918B
:101110002191222319F03217C9F3FACF332331F486
:10112000DA011D921C928827992708951197AF9391
:10113000BF93FB013D912191321771F4332321F4C8
:1011400088279927119702C01E921196FA01A19340
:10115000B0839F918F910895222369F7EACF7AE0B7
:10116000979F902D879F802D910D11240895AEE0BB
:10117000B0E0EDEBF8E00C946B2E0D891E898F89A1
:10118000988D97FF02C080E090E801979E838D8341
:101190001A8309838EE08C839E01255E3F4FCE012A
:1011A0000196698D7A8DA9010E94E8084D815E81C2
:1011B00057FD0AC02F813885421753070CF49A0156
:1011C000020F131FF80110822E96E4E00C94872E74
:1011D000ABE0B0E0EEEEF8E00C945D2E3C012B01AC
:1011E0005A01FC0117821682838181FD03C06FEFD3
:1011F0007FEFC6C19AE0892E1E010894211C311C84
:10120000F3012381F20123FD859123FF81912F01B9
:10121000882309F4B2C1853239F423FD859123FF77
:1012200081912F01853229F490E0B3010E94150DC0
:10123000E7CF982FFF24EE249924FFE1FF15D0F08B
:101240009B3269F09C3228F4903259F0933291F439
:101250000EC09D3249F0903369F441E024C052E061
:10126000F52A84E0F82A28C098E0F92A25C0E0E1B0
:10127000FE2A22C0F7FC29C0892F80538A3070F4DF
:10128000F6FE05C0989C902C1124980E15C0E89C81
:10129000E02C1124E80EF0E2FF2A0EC09E3229F461
:1012A000F6FC6BC140E4F42A07C09C3619F450E800
:1012B000F52A02C0983649F4F20123FD959123FFE7
:1012C00091912F01992309F0B8CF892F855483304C
:1012D00018F08052833038F444E050E0A40EB51E7C
:1012E0005FE359830FC0933631F0933779F093352C
:1012F00009F056C020C0F5018081898342E050E0AA
:10130000A40EB51E610101E010E012C0F501C0801D
:10131000D180F6FC03C06FEF7FEF02C0692D70E053
:1013200042E050E0A40EB51EC6010E940A0D8C01D9
:101330005FE7F52214C0F501C080D180F6FC03C040
:101340006FEF7FEF02C0692D70E042E050E0A40E25
:10135000B51EC6010E94FF0C8C0150E8F52AF3FE71
:1013600007C01AC080E290E0B3010E94150DEA9414
:101370008E2D90E008171907A8F30EC0F601F7FCB0
:101380008591F7FE81916F0190E0B3010E94150DE8
:10139000E110EA94015010400115110579F7EAC0F7
:1013A000943611F0993669F5F7FE08C0F5012081F1
:1013B00031814281538184E090E00AC0F50180814F
:1013C00091819C01442737FD4095542F82E090E0A5
:1013D000A80EB91E9FE6F92257FF09C05095409507
:1013E000309521953F4F4F4F5F4FE0E8FE2ACA01ED
:1013F000B901A1012AE030E00E94410DD82ED21897
:1014000040C0953729F41F2D1F7E2AE030E01DC013
:101410001F2D197F9F3661F0903720F4983509F021
:10142000ACC00FC0903739F0983709F0A6C004C09F
:1014300028E030E00AC0106114FD146020E130E0C3
:1014400004C014FD166020E132E017FF08C0F5016A
:10145000608171818281938144E050E008C0F50190
:1014600080819181BC0180E090E042E050E0A40ED8
:10147000B51EA1010E94410DD82ED2188FE7F82E7B
:10148000F122F6FE0BC05EEFF522D91438F4F4FE1B
:1014900007C0F2FC05C08FEEF82202C01D2D01C06E
:1014A000192DF4FE0DC0FE01ED0DF11D808180337C
:1014B00019F499EEF92208C01F5FF2FE05C003C0BF
:1014C0008F2D867809F01F5F0F2DF3FC14C0F0FEFE
:1014D0000FC01E1510F09D2C0BC09D2C9E0C911A58
:1014E0001E2D06C080E290E0B3010E94150D1F5F23
:1014F0001E15C0F304C01E1510F4E11A01C0EE243D
:1015000004FF0FC080E390E0B3010E94150D02FFBD
:101510001DC001FD03C088E790E00EC088E590E0A3
:101520000BC0802F867891F001FF02C08BE201C0D2
:1015300080E2F7FC8DE290E0B3010E94150D06C039
:1015400080E390E0B3010E94150D9A94D914C0F382
:10155000DA94F101ED0DF11D808190E0B3010E945C
:10156000150DDD20A9F706C080E290E0B3010E94CE
:10157000150DEA94EE20C1F743CEF3016681778121
:10158000CB012B96E2E10C94792EA9E0B0E0EBECD4
:10159000FAE00C94612E6A01122FA02EBE2C2BE3D0
:1015A000201718F42CE3922E02C0902E9394AE01D3
:1015B0004F5F5F4F27E0092D0E94270CBC018981F6
:1015C000E82EFF24C70189709070019711F4ADE2F5
:1015D00009C0B1FE02C0ABE205C0B0FC02C0A0E091
:1015E00001C0A0E2E3FE3BC0AA2311F423E001C046
:1015F00024E0211710F020E002C0121B212FEB2C59
:10160000B4FE02C0322F0AC0F601322F80E202C0BF
:10161000819331503323E1F7C20ED11CAA2319F074
:10162000F601A1936F01F6013196E2FE05C09EE43A
:10163000D6019C9381E404C09EE6D6019C9381E68A
:1016400011968C9391833296DF01832F90E202C032
:101650009D9381508823E1F7E30FF11D40C0E2FE26
:1016600042C0AA2311F423E001C024E0211710F0A6
:1016700020E002C0121B212FEB2CB4FE02C0922FDF
:101680000AC0F601922F80E202C081939150992303
:10169000E1F7C20ED11CAA2319F0F601A1936F0144
:1016A000F6013196E2FE08C089E4D6018C938EE4FF
:1016B00011968C9386E407C089E6D6018C938EE65A
:1016C00011968C9386E681833296DF01892F20E282
:1016D00002C02D9381508823E1F7E90FF11D10829C
:1016E0002EEF3FEFAFC0161617061CF041E050E09A
:1016F00003C0AB014F5F5F4FAA2019F480E090E078
:1017000003C08A2D90E0019620E030E0AA2311F07A
:1017100021E030E0240F351F280F391F812F90E082
:101720002817390714F020E002C0121B212F4B2D7F
:1017300050E0CA0180719070B4FC0DC0B3FC0BC0C6
:10174000F601322F40E202C0419331503323E1F7DA
:10175000C20ED11C01C0322FAA2319F0F601A193A9
:101760006F01892B11F0132F0AC0F601132F80E3AC
:1017700002C0819311501123E1F7C30ED11C092D32
:10178000060FBA8090E1892E912C8E209F20E4FED6
:1017900004C0F1E3BF1609F40150101614F001E083
:1017A00003C0093008F008E09B0177FF02C020E089
:1017B00030E0CB010196821B930BFE013196E80FBE
:1017C000F91F8EE2F82E3B01601A71088A2D90E015
:1017D00044275527481B590B8FEF2F3F380719F423
:1017E000D601FD926D01621773072CF06216730625
:1017F00014F4808101C080E32150304031962417D9
:10180000350724F0D6018D936D01E6CF26173707F3
:1018100049F4B5E3BB1528F0BB1621F481149104FB
:1018200009F481E3F6018193D601812F90E202C091
:101830009C93815011968823D9F7E10FF11D1082F6
:1018400020E030E0C9012996EEE00C947D2E28308E
:1018500008F027E03327DA01990F311D87FD9160E9
:1018600000966105710539F432602E5F3D9330E3D7
:101870002A95E1F708959F3F30F0803871056105A2
:1018800009F03C5F3C5F3D93913008F08068911D0A
:10189000DF93CF931F930F93FF92EF92192F987FAF
:1018A0009695E92F96959695E90FFF27EB54F14F02
:1018B00099273327EE24FF24A701E7010590089418
:1018C000079428F4360FE71EF81E491F511D660FB6
:1018D000771F881F991F0694A1F70590079428F495
:1018E000E70EF81E491F561FC11D770F881F991F4D
:1018F000661F0694A1F70590079428F4F80E491F77
:10190000561FC71FD11D880F991F661F771F06948A
:10191000A1F70590079420F4490F561FC71FD81F41
:10192000990F661F771F881F0694A9F78491109559
:10193000177041F0D695C79557954795F794E7945A
:101940001A95C1F7EBE5FEE0689415901591359175
:101950006591959105907FE27395E118F10A430B2B
:10196000560BC90BD009C0F7E10CF11E431F561FDF
:10197000C91FD01D7EF4703311F48A95E6CFE89428
:10198000015030F0080F0AF40027021708F4202F46
:101990002395022F7A3328F079E37D932A95E9F78E
:1019A00010C07D932A9589F606949795679537958B
:1019B00017951794E118F10A430B560BC90BD00980
:1019C00098F023957E9173957A3308F070E37C93B9
:1019D0002013B8F77E9170617D9330F0839571E3A9
:1019E0007D9370E32A95E1F71124EF90FF900F911A
:1019F0001F91CF91DF91992787FD90950895FC0164
:101A00000590615070400110D8F7809590958E0F29
:101A10009F1F0895FC016150704001900110D8F79C
:101A2000809590958E0F9F1F08950F931F93CF93CE
:101A3000DF938C01EB018B8181FF1BC082FF0DC006
:101A40002E813F818C819D812817390764F4E881BC
:101A5000F9810193F983E88306C0E885F985802F31
:101A60000995892B31F48E819F8101969F838E8306
:101A700002C00FEF1FEFC801DF91CF911F910F91AF
:101A80000895FA01AA27283051F1203181F1E89414
:101A90006F936E7F6E5F7F4F8F4F9F4FAF4FB1E061
:101AA0003ED0B4E03CD0670F781F891F9A1FA11D5C
:101AB000680F791F8A1F911DA11D6A0F711D811D5D
:101AC000911DA11D20D009F468943F912AE0269F22
:101AD00011243019305D3193DEF6CF010895462F81
:101AE0004770405D4193B3E00FD0C9F7F6CF462F62
:101AF0004F70405D4A3318F0495D31FD40524193CB
:101B000002D0A9F7EACFB4E0A69597958795779587
:101B10006795BA95C9F700976105710508959B010E
:101B2000AC010A2E06945795479537952795BA9597
:101B3000C9F7620F731F841F951FA01D0895AA2760
:101B400097FDA095BA2FBC01CD010E94892C20E001
:101B500030E040EA5BE30E945A2D9B01AC0160E05B
:101B600070E48CE195E40E94EE2B20E030E04AEF37
:101B700053E40E94892B26E636E646E151E40E94B2
:101B8000EE2B08950F9381309105B9F46F5F7F4F6D
:101B9000E9F488E195E060E040E020E000E00E94A8
:101BA000A3168EEF91E062E043E020E00E94532B09
:101BB0008AE192E00E94511A09C0892B39F46F5FC3
:101BC0007F4F21F48EEF91E00E94DA290F91089562
:101BD00080E090E06FEF7FEF0E94C20D089581E0FA
:101BE00090E06FEF7FEF0E94C20D08950F931F9357
:101BF0000AE112E0C80164E571E00E948417C8019F
:101C00006CE371E00E948417C80161E271E00E94F8
:101C10008417C8010E946417C80164E171E00E9442
:101C2000A31BC80167EF70E00E94A31BC80169EE07
:101C300070E00E94A31BC80166ED70E00E94A31B28
:101C4000C80161ED70E00E94A31BC80162EC70E066
:101C50000E94A31BC8010E94C81B1F910F910895E9
:101C6000EF92FF920F931F930AE112E0C8016EEA10
:101C700073E00E948417C80167E973E00E9484172B
:101C8000C8016CE773E00E948417C8010E946417C2
:101C9000C80165E573E00E94A31B8DB79EB7089746
:101CA0000FB6F8949EBF0FBE8DBFEDB7FEB731964D
:101CB0008AE1E82E83E0F82EADB7BEB71296FC920B
:101CC000EE92119784E690E09383828385E493E01B
:101CD0009583848380E792E0978386830E94B70888
:101CE0008DB79EB708960FB6F8949EBF0FBE8DBFF6
:101CF000C801B7010E94781BC8010E94C81B1F9130
:101D00000F91FF90EF9008950F931F938FEA95E046
:101D100040E052EC61E070E00E941C158FEA95E013
:101D20006DE575E00E9484178FEA95E06FE475E039
:101D30000E9439178AE192E00E94841ABC018FEA5E
:101D400095E04AE050E00E94C1188EEF91E040E833
:101D500055E260E070E00E94E8288AE192E06EEFD0
:101D600071E04FEA55E00E94B424882351F48FEAD1
:101D700095E069E375E00E9484178AE192E00E9491
:101D80002F1B8AE192E00E944C2768EE73E080E00E
:101D900090E00E946B1308E813E08AE192E0B8013A
:101DA00040E951E00E9485228FEA95E0B8010E9447
:101DB000E3188DB79EB708970FB6F8949EBF0FBE75
:101DC0008DBFEDB7FEB73196ADB7BEB712961C9377
:101DD0000E93119780E991E09383828387ED94E0DD
:101DE0009583848380E091E0978386830E94B7087F
:101DF0008DB79EB708960FB6F8949EBF0FBE8DBFE5
:101E00008AE192E00E94FA1A8823B9F58FEA95E0F8
:101E100067EC74E00E9484178AE192E065E371E068
:101E20000E9426218AE192E06DE371E00E943D214B
:101E30008AE192E00E9471218AE192E061E00E94D1
:101E400054218AE192E00E944E208AE192E060E211
:101E50007EE40E94D427882329F08FEA95E063EB83
:101E600074E00FC08FEA95E067E974E00E94841780
:101E70008AE192E00E942F1B06C08FEA95E060E89D
:101E800074E00E9484178AE192E060E00E94B92128
:101E90008FEA95E06AE774E00E9439178AE192E0E0
:101EA00060E772E044E150E00E94E724BC018FEA61
:101EB00095E00E94E3188FEA95E065E774E00E94E0
:101EC00039178AE192E064E872E046E950E00E9446
:101ED0004F25BC018FEA95E00E94E3188AE192E069
:101EE00062E071E00E9475218AE192E00E94021B8B
:101EF000882351F08FEA95E066E574E00E9484172C
:101F00008AE192E00E940B278AE192E063E00E945E
:101F1000C5218AE192E00E94EF2480359105D1F03D
:101F20008AE192E060E570E00E94D1218AE192E0CE
:101F30000E944E208FEA95E06CE274E00E948417C4
:101F40008AE192E00E948A2468EB7BE080E090E0E6
:101F50000E946B138FEA95E066E274E00E9484179A
:101F60001F910F9108956F927F928F929F92AF92DF
:101F7000BF92CF92DF92EF92FF920F931F937C015B
:101F800060902E0170902F0180903001909031016F
:101F9000C401B30120E030E040E854E40E945A2D2F
:101FA0005B016C010027F7FC0095102FC801B701F9
:101FB0000E94892C9B01AC01C601B5010E94EE2B49
:101FC000A40193010E94892B0E94562C0E94892C07
:101FD0000E941A2D7B018C012BE938E54FE25AE370
:101FE0000E945A2D29EF3AEA45E55AE30E94892BCF
:101FF0005B016C01C801B70123EF32EE48E056EBFC
:102000000E945A2DA80197010E945A2DA8019701FC
:102010000E945A2D9B01AC01C601B5010E948A2B7A
:102020009B01AC0160E070E080E89FE30E94EE2B32
:1020300023E333E948E853E40E94892B1F910F9171
:10204000FF90EF90DF90CF90BF90AF909F908F90D8
:102050007F906F9008952F923F924F925F926F9270
:102060007F928F929F92AF92BF92CF92DF92EF9228
:10207000FF920F931F93DF93CF93CDB7DEB7C85F67
:10208000D1400FB6F894DEBF0FBECDBF8AE192E01B
:1020900065E373E00E9484178AE192E06EE173E0E9
:1020A0000E9484178AE192E063E073E00E94841743
:1020B0008AE192E00E9464178AE192E06CED72E09E
:1020C0000E94A31B8AE192E06CEC72E00E94A31BC9
:1020D0002DB73EB7285030400FB6F8943EBF0FBE24
:1020E0002DBFEDB7FEB73196AAE1EA2EA3E0FA2E96
:1020F000ADB7BEB71296FC92EE92119784E690E0CF
:10210000938382838CEB92E09583848380E792E0D3
:10211000978386830E94B7082DB73EB7285F3F4F4D
:102120000FB6F8943EBF0FBE2DBF8AE192E0B70113
:102130000E94781B8AE192E063EB72E00E94A31B8D
:102140008E010B5F1F4FC80168E873E044EF51E058
:102150000E945408C80162E171E08E010F5F1F4FB9
:10216000A8010E947D086C0173E0672E712C6C0E33
:102170007D1EAE2CEF2C64E6862E912C5AE7252E80
:1021800052E0352E48E9442E42E0542EB02EF12E76
:1021900093C08AE192E06EEA72E00E94A31BC6013E
:1021A00064E171E0A3010E947D0800E010E072C0CC
:1021B0000F5F1F4F04301105E1F006301105E1F10A
:1021C0000330110509F05FC0ADB7BEB718970FB661
:1021D000F894BEBF0FBEADBFEDB7FEB731961196F6
:1021E000AC9211971296EC9293828282558244822D
:1021F00037C0ADB7BEB718970FB6F894BEBF0FBEC5
:10220000ADBFEDB7FEB731961196AC92119712960D
:10221000EC929382828228E832E03583248397838C
:1022200086830E94B7088DB79EB708960FB6F894BC
:102230009EBF0FBE8DBF21C0ADB7BEB718970FB6FA
:10224000F894BEBF0FBEADBFEDB7FEB73196119685
:10225000AC9211971296EC929382828235822482FC
:10226000978386830E94B7082DB73EB7285F3F4FFC
:102270000FB6F8943EBF0FBE2DBF8AE192E06A2DE3
:102280007E2D0E94781B80E090E064E171E0A30164
:102290000E947D08009709F08BCF8AE192E064E705
:1022A00072E00E94A31B80E090E062E171E04B2DA0
:1022B0005F2D0E947D086C01C114D10409F069CF23
:1022C0008AE192E06AE672E00E94A31B8AE192E052
:1022D00060E672E00E94A31B80E00E94F3120E945D
:1022E000B30F3EE7C32E33E0D32E45E022E0860154
:1022F0000E94DA078DB79EB708970FB6F8949EBF75
:102300000FBE8DBFEDB7FEB731962AE1E22E23E076
:10231000F22EADB7BEB71296FC92EE92119794E6EC
:10232000A92EB12CB382A2828CE292E095838483A1
:10233000D782C6820E94B7082DB73EB7285F3F4FAD
:102340000FB6F8943EBF0FBE2DBF8FEA95E0B701E0
:102350000E94E3188AE192E0B7010E94781B81E0B5
:102360000E94F3120E949F0D45E022E00E94DA07CE
:102370008DB79EB708970FB6F8949EBF0FBE8DBF5E
:10238000EDB7FEB73196ADB7BEB71296FC92EE929E
:102390001197B382A28287EF91E095838483D782DD
:1023A000C6820E94B7082DB73EB7285F3F4F0FB6D1
:1023B000F8943EBF0FBE2DBF8FEA95E0B7010E9493
:1023C000E3188AE192E0B7010E94781BC60166E13A
:1023D00071E00E944D088DB79EB708970FB6F8942C
:1023E0009EBF0FBE8DBFEDB7FEB73196ADB7BEB77E
:1023F0001296FC92EE921197B382A2828FEB91E03B
:1024000095838483D782C6820E94B7082DB73EB7D2
:10241000285F3F4F0FB6F8943EBF0FBE2DBF8FEA27
:1024200095E0B7010E94E3188AE192E0B7010E94AB
:10243000781BC60166E171E00E944D088DB79EB71A
:1024400008970FB6F8949EBF0FBE8DBFEDB7FEB7CD
:102450003196ADB7BEB71296FC92EE921197B38249
:10246000A28287E891E095838483D782C6820E9406
:10247000B7082DB73EB7285F3F4F0FB6F8943EBF61
:102480000FBE2DBF8FEA95E0B7010E94E3188AE1E5
:1024900092E0B7010E94781B8AE192E06CE771E05C
:1024A0000E94A31B8AE192E06BE671E00E94A31BED
:1024B0008AE192E00E94C81BC850DE4F0FB6F89424
:1024C000DEBF0FBECDBFCF91DF911F910F91FF9067
:1024D000EF90DF90CF90BF90AF909F908F907F90C4
:1024E0006F905F904F903F902F9008958AE192E017
:1024F0000E941C26181619060CF074C08AE192E09E
:1025000064E872E046E950E024EF31E00E949B1C51
:10251000892B09F467C084E892E06CE174E049E03B
:1025200050E00E942508892BB1F48FEA95E069E01C
:1025300074E00E9484178AE192E064E872E046E960
:1025400050E024EF31E00E949B1C181619069CF302
:102550000E94300E089584E892E06FEF73E049E046
:1025600050E00E942508892BB1F48FEA95E067EDD1
:1025700073E00E9484178AE192E064E872E046E921
:1025800050E024EF31E00E949B1C181619069CF3C2
:102590000E942B1008958FEA95E06AEC73E00E9488
:1025A00039178FEA95E064E872E00E94E3188FEA39
:1025B00095E06EEB73E00E9484178AE192E064E894
:1025C00072E046E950E024EF31E00E949B1C1816AF
:1025D00019069CF38AE192E064EF71E00E94E9261B
:1025E0000E94F60D0895982F8E3008F09E50977037
:1025F000809132018295880F880F807C892B80938F
:102600007C0080917A00806480937A0080917A00C7
:1026100086FDFCCF2091780040917900942F80E0D6
:1026200030E0282B392BC90108951F920F920FB665
:102630000F9211242F933F938F939F93AF93BF9348
:102640008091220590912305A0912405B091250544
:10265000309126050196A11DB11D232F2D5F2D3729
:1026600020F02D570196A11DB11D209326058093C2
:10267000220590932305A0932405B093250580910E
:102680001E0590911F05A0912005B091210501968E
:10269000A11DB11D80931E0590931F05A0932005D9
:1026A000B0932105BF91AF919F918F913F912F9151
:1026B0000F900FBE0F901F9018958FB7F894209130
:1026C00022053091230540912405509125058FBFA7
:1026D000B901CA0108959B01AC017FB7F8948091BC
:1026E0001E0590911F05A0912005B091210566B5AA
:1026F000A89B05C06F3F19F00196A11DB11D7FBFBA
:10270000BA2FA92F982F8827860F911DA11DB11DC3
:1027100062E0880F991FAA1FBB1F6A95D1F7BC0101
:102720002DC0FFB7F89480911E0590911F05A091D0
:102730002005B0912105E6B5A89B05C0EF3F19F033
:102740000196A11DB11DFFBFBA2FA92F982F882771
:102750008E0F911DA11DB11DE2E0880F991FAA1FC8
:10276000BB1FEA95D1F7861B970B885E9340C8F292
:10277000215030404040504068517C4F2115310578
:102780004105510571F60895789484B5826084BD41
:1027900084B5816084BD85B5826085BD85B5816065
:1027A00085BDEEE6F0E0808181608083E1E8F0E0C5
:1027B0001082808182608083808181608083E0E8F4
:1027C000F0E0808181608083E1EBF0E080818460D3
:1027D0008083E0EBF0E0808181608083EAE7F0E0D5
:1027E0008081846080838081826080838081816039
:1027F00080838081806880831092C1000895CF9388
:10280000DF93482F50E0CA0188569A4FFC0134915B
:102810004C575A4FFA018491882369F190E0880F50
:10282000991FFC01EA59FA4FA591B491FC01E059B6
:10283000FA4FC591D491662351F42FB7F8948C9137
:10284000932F909589238C93888189230BC06230C4
:1028500061F42FB7F8948C91932F909589238C93E2
:102860008881832B88832FBF06C09FB7F8948C91F3
:10287000832B8C939FBFDF91CF910895482F50E019
:10288000CA0184559A4FFC012491CA0188569A4F77
:10289000FC0194914C575A4FFA013491332309F4B7
:1028A00040C0222351F1233071F0243028F421302C
:1028B000A1F0223011F514C02630B1F02730C1F05C
:1028C0002430D9F404C0809180008F7703C08091B8
:1028D00080008F7D8093800010C084B58F7702C008
:1028E00084B58F7D84BD09C08091B0008F7703C00F
:1028F0008091B0008F7D8093B000E32FF0E0EE0F69
:10290000FF1FE059FA4FA591B4912FB7F8946623B1
:1029100021F48C919095892302C08C91892B8C9302
:102920002FBF089508951F920F920FB60F92112492
:102930002F933F934F938F939F93EF93FF938091A8
:10294000C00082FD1DC04091C600209167053091F6
:1029500068052F5F3F4F2F7330708091690590910C
:102960006A052817390771F0E0916705F09168054D
:10297000E95DFA4F4083309368052093670502C0F4
:102980008091C600FF91EF919F918F914F913F9160
:102990002F910F900FBE0F901F901895E091BB05DF
:1029A000F091BC05E05CFF4F8191919120813181D4
:1029B000821B930B8F739070892B11F00E949214DD
:1029C00008951F920F920FB60F9211242F933F93E9
:1029D0008F939F93EF93FF932091AB053091AC05BC
:1029E0008091AD059091AE052817390731F480919B
:1029F000C1008F7D8093C10014C0E091AD05F091BE
:102A0000AE05E559FA4F20818091AD059091AE0554
:102A100001968F7390709093AE058093AD052093CF
:102A2000C600FF91EF919F918F913F912F910F9051
:102A30000FBE0F901F901895AF92BF92DF92EF924A
:102A4000FF920F931F93CF93DF93EC017A018B01D9
:102A5000DD24403081EE580780E0680780E0780789
:102A600011F0DD24D39491E0A92EB12CEC89FD89DD
:102A7000DD2069F0C50108A002C0880F991F0A94E3
:102A8000E2F7808360E079E08DE390E005C010829A
:102A900060E874E88EE190E0A80197010E943B2E67
:102AA00021503040404050405695479537952795E6
:102AB00080E12030380720F0DD2011F0DD24D6CF72
:102AC000E889F9893083EA89FB89208319A2EE8994
:102AD000FF89408121E030E0C9010C8C02C0880FE1
:102AE000991F0A94E2F7482B4083EE89FF894081C1
:102AF000C9010D8C02C0880F991F0A94E2F7482B78
:102B00004083EE89FF894081C9010E8C02C0880F85
:102B1000991F0A94E2F7482B4083EE89FF89808150
:102B20000F8C02C0220F331F0A94E2F7209528234E
:102B30002083DF91CF911F910F91FF90EF90DF9055
:102B4000BF90AF900895DC011C96ED91FC911D970C
:102B5000E05CFF4F2191319180819181281B390BDD
:102B60002F733070C9010895DC011C96ED91FC9122
:102B70001D97E05CFF4F20813181E054F040DF0180
:102B8000AE5BBF4F8D919C9111972817390719F4AF
:102B90002FEF3FEF07C08D919C91E80FF91F8081C7
:102BA000282F30E0C9010895DC011C96ED91FC91BD
:102BB0001D97E05CFF4F20813181E054F040DF0140
:102BC000AE5BBF4F8D919C9111972817390719F46F
:102BD0002FEF3FEF10C08D919C911197E80FF91FD7
:102BE00020818D919C91119701968F739070119611
:102BF0009C938E9330E0C9010895DC0191968C91ED
:102C00009197882339F05496ED91FC9155978081E6
:102C100086FFF9CF91961C920895CF93DF93EC0134
:102C2000EE85FF85E05CFF4F20813181E054F0406C
:102C30002F5F3F4F2F733070DF01AE5BBF4F8D9121
:102C40009C91119728173907D1F3E05CFF4F8081E1
:102C50009181E054F040E80FF91F6083EE85FF8515
:102C6000E05CFF4F31832083EE89FF89208181E082
:102C700090E00F8C02C0880F991F0A94E2F7282B6E
:102C8000208381E089A3EC89FD8980818064808331
:102C900081E090E0DF91CF9108951092B2051092FB
:102CA000B10588EE93E0A0E0B0E08093B305909387
:102CB000B405A093B505B093B6058CE491E090936C
:102CC000B0058093AF0587E295E09093BC058093B3
:102CD000BB058BE695E09093BE058093BD0585EC22
:102CE00090E09093C0058093BF0584EC90E09093B2
:102CF000C2058093C10580EC90E09093C405809359
:102D0000C30581EC90E09093C6058093C50582ECE5
:102D100090E09093C8058093C70586EC90E090936F
:102D2000CA058093C90584E08093CB0583E0809336
:102D3000CC0587E08093CD0585E08093CE0581E0CA
:102D40008093CF0508950F93FC018CE591E091836A
:102D5000808362834383248305830F9108958CE5E8
:102D600091E09093D2058093D1051092D3051092F3
:102D7000D4051092D5051092D60508958F929F9292
:102D8000AF92BF92CF92DF92EF92FF920F931F9379
:102D9000CF93DF934C016B017C01AA24BB24C0E0DC
:102DA000D0E0C601F70162814AE050E00E945C1861
:102DB0008C01C6016EE20E945C17080F191FA00E5D
:102DC000B11E21960894E11CF11CC330D10549F7CE
:102DD000C601F40165814AE050E00E945C1895014B
:102DE000280F391FC901DF91CF911F910F91FF90DB
:102DF000EF90DF90CF90BF90AF909F908F9008950D
:102E0000CF93DF930E94C4130E94840ECEECD4E1D2
:102E10000E9476122097E1F30E94CE14F9CFCF9250
:102E2000DF92EF92FF920F931F93CF93DF937C017A
:102E30006B018A01C0E0D0E00FC0D6016D916D0139
:102E4000D701ED91FC910190F081E02DC70109952A
:102E5000C80FD91F015010400115110571F7CE019F
:102E6000DF91CF911F910F91FF90EF90DF90CF9066
:102E70000895EF92FF920F931F93CF93DF937C01FE
:102E80008B01C0E0D0E0F8010F5F1F4F6491662313
:102E900059F0D701ED91FC910190F081E02DC7012F
:102EA0000995C80FD91FEFCFCE01DF91CF911F91A8
:102EB0000F91FF90EF900895DC01ED91FC9101904E
:102EC000F081E02D09950895EF92FF920F931F93E3
:102ED0008C01DC01ED91FC910190F081E02D6DE021
:102EE00009957C01D801ED91FC910190F081E02DD4
:102EF000C8016AE009959C012E0D3F1DC9011F9173
:102F00000F91FF90EF900895EF92FF920F931F9310
:102F10007C010E9439178C01C7010E9464179C0133
:102F2000200F311FC9011F910F91FF90EF9008955D
:102F3000EF92FF920F931F937C01DC01ED91FC91C6
:102F40000190F081E02D09958C01C7010E94641762
:102F5000080F191FC8011F910F91FF90EF9008955E
:102F6000CF93DF93EC016115710519F420E030E097
:102F70000FC0DB010D900020E9F71197A61BB70BDE
:102F8000E881F9810280F381E02DAD0109959C0172
:102F9000C901DF91CF9108954F925F927F928F92F6
:102FA0009F92AF92BF92CF92DF92EF92FF920F93D8
:102FB0001F93DF93CF93CDB7DEB7A1970FB6F894E9
:102FC000DEBF0FBECDBF2C01742ECB01223008F422
:102FD0002AE019A231E2C32ED12CCC0EDD1E822EA6
:102FE0009924AA24BB24672D752FA50194010E9462
:102FF0003B2E79018A01C801B701A50194010E9405
:10300000F52D472D461B0894C108D1084A3014F409
:10301000405D01C0495CF6014083E114F104010503
:10302000110521F07E2C5F2DC801DDCFC201B60154
:103030000E94B017A1960FB6F894DEBF0FBECDBFA9
:10304000CF91DF911F910F91FF90EF90DF90CF9084
:10305000BF90AF909F908F907F905F904F9008951A
:10306000DC012115310541F4ED91FC910190F081D5
:10307000E02D642F099508950E94CC170895CF92F2
:10308000DF92EF92FF920F931F936C017B019A01E5
:1030900000E010E0B801A7010E9430188C01C601C1
:1030A0000E946417080F191FC8011F910F91FF900C
:1030B000EF90DF90CF900895EF92FF920F931F93C0
:1030C0009A01E62EFF2400E010E0B801A7010E945B
:1030D00030181F910F91FF90EF900895CF92DF92DB
:1030E000EF92FF920F931F93CF93DF93EC016A014E
:1030F0007B012115310541F4E881F9810190F081CE
:10310000E02D642F09951FC02A303105D1F477FFD7
:1031100017C0E881F9810190F081E02D6DE20995F9
:103120008C0144275527BA014C195D096E097F09A6
:10313000CE012AE00E94CC179801280F391F04C045
:103140002AE00E94CC179C01C901DF91CF911F9109
:103150000F91FF90EF90DF90CF900895EF92FF9244
:103160000F931F937B019A010027F7FC0095102F06
:10317000B801A7010E946E181F910F91FF90EF9068
:103180000895CF92DF92EF92FF920F931F936C01FD
:103190007B019A010027F7FC0095102FB801A701C9
:1031A0000E946E188C01C6010E946417080F191F37
:1031B000C8011F910F91FF90EF90DF90CF9008957D
:1031C0000E94B0170895EF92FF920F931F937C0116
:1031D0000E94B0178C01C7010E946417080F191FC5
:1031E000C8011F910F91FF90EF900895DC011C968C
:1031F000ED91FC911D97A081B18116962D913C9186
:103200001797CF01F90109950895DC011C96ED91FE
:10321000FC911D97A081B18114962D913C91159739
:10322000CF01F90109950895DC011C96ED91FC91FF
:103230001D97A081B1811A962D913C911B97CF01CA
:10324000F90109950895DC011C96ED91FC911D97FB
:10325000A081B18118962D913C911997CF01F90168
:10326000099508952F923F924F925F926F927F92AD
:103270008F929F92BF92CF92DF92EF92FF920F9325
:103280001F93DF93CF93CDB7DEB762970FB6F89455
:10329000DEBF0FBECDBF3B014C0119011A8B098B5C
:1032A0004A3099F544245524C401B3012AE030E0A2
:1032B00040E050E00E943B2E022FD32EC42EB52EAC
:1032C00091E0E92EF12CEC0EFD1EE40CF51C162D00
:1032D000105D622F732F842F952F2AE030E040E09D
:1032E00050E00E94F52D161BF70110830894411C35
:1032F000511C802F9D2DAC2DBB2D3C014D01611427
:1033000071048104910481F636C020E030E0BE01F2
:103310006F5F7F4FD401C3018F709070A070B07049
:103320008A309105A105B10510F440E301C041E4E4
:10333000FB01E20FF31F480F40832F5F3F4F84E0F4
:1033400096948794779467948A95D1F76114710461
:1033500081049104F9F6FB01E20FF31F88E78083F3
:103360002F5F3F4F620F731F80E3FB0180832901B2
:103370000894411C511CDE01A40DB51D20E030E075
:1033800009891A8901501040F101E20FF31F8C9155
:1033900080832F5F3F4FC201821B930B18161906C3
:1033A00024F41197201731077CF3220E331EF1010C
:1033B0001082C90162960FB6F894DEBF0FBECDBF72
:1033C000CF91DF911F910F91FF90EF90DF90CF9001
:1033D000BF909F908F907F906F905F904F903F90A5
:1033E0002F900895FC0120E030E040E050E070E0D4
:1033F00051C0862F80538A30A0F4DA01C90144E01D
:10340000880F991FAA1FBB1F4A95D1F7262F332774
:1034100027FD3095432F532F2053304040405040DC
:103420002FC0862F81568630A0F4DA01C90134E01E
:10343000880F991FAA1FBB1F3A95D1F7262F332754
:1034400027FD3095432F532F2755304040405040A3
:1034500017C0862F81548630C0F4DA01C90124E0F8
:10346000880F991FAA1FBB1F2A95D1F7262F332734
:1034700027FD3095432F532F275330404040504075
:10348000280F391F4A1F5B1F05C0683739F477239F
:1034900029F471E06191662309F0ABCFB901CA014B
:1034A0000895FC011382128228EE33E040E050E0E0
:1034B000248335834683578382E791E09183808319
:1034C000ED5BFF4F1192119220833183428353832E
:1034D000349782E691E0918380833C96118210823A
:1034E000ED54F04015861786168617AA10AE81E0B7
:1034F000808B818B1486E05BFF4F119211921192A9
:103500001192118210820895DF93CF9300D0CDB72E
:10351000DEB72091330130913401CE01019621159F
:10352000310519F48F53964002C0821B930B9A8386
:10353000898389819A810F900F90CF91DF910895AF
:10354000CF93DF93DC01EC01CE5ADF4F2881398124
:10355000AC5ABF4F8D919C911197A455B04028173C
:10356000390774F4A05BBF4FED91FC911197A05502
:10357000B040E20FF31F60832F5F3F4F39832883F2
:10358000DF96ED91FC91A081B1812D913C91CF010D
:10359000F9010995DF91CF910895FC018091F00523
:1035A000882379F4FF960190F081E02DA081B1810C
:1035B00018962D913C911997CF01F90109959C011D
:1035C0000AC0E091F105F0E0EE50FA4F8081282F1B
:1035D000332727FD3095C9010895FC01FF96A0818E
:1035E000B181ED91FC9111970284F385E02DCD011D
:1035F0000995089520E0FC0182AD813009F421E0B5
:10360000822F08950F931F938C01DC01ED91FC91A3
:103610000480F581E02D0995F80187A91F910F918C
:103620000895FC01A485B585109719F420E030E0D9
:1036300009C0ED91FC9111970190F081E02DCD0131
:1036400009959C01C90108950F9387ED95E060E00D
:1036500040E020E000E00E94A3160F910895CF9271
:10366000DF92EF92FF920F931F93CF93DF938C0122
:10367000EC01CF5BDF4FCE0169EF75E00E9484174C
:103680006FE3C62ED12CC00ED11ED601ED91FC9158
:10369000A081B18114962D913C911597CF01F9012C
:1036A0000995181619067CF4F601A081B181ED91F7
:1036B000FC9111970680F781E02DCD010995682FC7
:1036C000CE010E94111BCE010E940519892BE9F23F
:1036D000D6010D911C91D801ED91FC91E080F18013
:1036E000CE010E94F618682FC801F7010995CDCFC9
:1036F000EF92FF920F931F93F62EE72EE62FF72FF0
:10370000DF010D900020E9F7AE1BBF0B8C01015CBF
:103710001F4F1196F80180819181BD0140E150E079
:103720000E943F18F801808191816F2D7E2D0E94AB
:10373000E318F801808191810E9464171F910F9115
:10374000FF90EF900895EF92FF920F931F938C01DB
:103750007B01CB010E941C08015C1F4FBC016E5F06
:103760007F4FF8018081918140E150E00E943F1835
:10377000F80180819181B7010E948417F80180814E
:1037800091810E9464171F910F91FF90EF9008950F
:103790000F931F938C01015C1F4FF8018081918171
:1037A00060E30E949817F801808191810E9464175C
:1037B0001F910F910895CB016EED75E00E94630893
:1037C0009C0180E0232B09F081E008956F927F92A5
:1037D0008F929F92AF92BF92CF92DF92EF92FF9221
:1037E0000F931F93CF93DF93EC013B018A010E945B
:1037F0005D135B016C01780100E010E07FE3872E30
:10380000912C8C0E9D1E71C0D401ED91FC91A08174
:10381000B18114962D913C911597CF01F90109952D
:10382000181619060CF061C0F401A081B181ED9168
:10383000FC9111970680F781E02DCD010995F82EB6
:10384000D3018C93DE01AE5ABF4F2D913C9111975D
:10385000CC5ADF4F88819981C455D0402817390749
:103860006CF4C05BDF4FE881F981C055D040E20FB6
:10387000F31FF0822F5F3F4F2D933C938C8588235D
:1038800091F1CF5BDF4F6091EE057091EF056F5FB7
:103890007F4F7093EF056093EE0561507040CE014D
:1038A0004AE050E00E94AE18CE0168E57BE00E943D
:1038B00039170F2D112707FD1095CE01B80140E1F2
:1038C00050E00E94AE18C8010E94832B892B41F062
:1038D000CE0160E20E945C17CE016F2D0E945C1742
:1038E000CE010E94641781E017C00E945D136A191F
:1038F0007B098C099D096E157F058007910708F4E7
:1039000083CF8C85882341F0CE018F5B9F4F60E48D
:103910007BE00E94841780E0DF91CF911F910F918F
:10392000FF90EF90DF90CF90BF90AF909F908F90DF
:103930007F906F9008952F923F924F925F926F9277
:103940007F928F929F92AF92BF92DF92EF92FF92FF
:103950000F931F93DF93CF930F92CDB7DEB73C0148
:103960007B01490100E010E01E010894211C311C7C
:10397000EEEF4E2EEFEF5E2E440E551E5A010894C8
:10398000A108B1083CC0D9808DE0D81659F5C30113
:10399000B101A4010E94E61B29812A3041F4E114FF
:1039A000F104F1F1E00EF11EF701108239C0E114CB
:1039B000F104C1F00415150564F4F701E00FF11FDF
:1039C000D082C8010196F701E80FF91F20838C010E
:1039D00007C00A151B0534F4F701E00FF11FD08270
:1039E0000F5F1F4F0A151B0554F4E114F10439F061
:1039F000F701E00FF11F898180830F5F1F4FC30123
:103A0000B101A4010E94E61B882309F0BCCFE11498
:103A1000F10421F00E0D1F1DF801108200E010E0EE
:103A2000C8010F90CF91DF911F910F91FF90EF9000
:103A3000DF90BF90AF909F908F907F906F905F903E
:103A40004F903F902F9008952F923F924F925F9208
:103A50006F927F928F929F92AF92BF92CF92DF929E
:103A6000EF92FF920F931F93DF93CF9300D00F92AB
:103A7000CDB7DEB74C011B01C42E39014DB65EB681
:103A8000242F30E0C901880F991F820F931F2DB793
:103A90003EB7281B390B0FB6F8943EBF0FBE2DBFA3
:103AA000ADB6BEB60894A11CB11C31E4E32EF12CD6
:103AB000E80CF91C8B01DD242BC08D2D90E0FC015E
:103AC000EE0FFF1FE80FF91FEA0DFB1D1082D80152
:103AD0008D919C9192838183F40184858823A9F040
:103AE000C70167E27BE00E943917C7016D2D4AE0EC
:103AF00050E00E945C18C70160E20E945C17D80188
:103B00006D917C91C7010E948417D3940E5F1F4F63
:103B1000DC1498F239C0262F30E0D901AA0FBB1F60
:103B2000A20FB31FAA0DBB1D1196ED91FC91129728
:103B30008491781779F0FA010190F081E02DFB83F0
:103B4000EA831296FC93EE931197849190E0081704
:103B5000190729F431961296FC93EE931197F90107
:103B6000EE0FFF1FE20FF31FEA0DFB1D0180F28134
:103B7000E02DE4914E5F5F4FEE2311F4862F18C0C5
:103B80006F5F6C1528F4C7CF7E010894E11CF11C0F
:103B9000C401B701A3010E94E61B882341F079818B
:103BA000072F112707FD1095A10160E0EACF8FEFE5
:103BB0000FB6F8945EBE0FBE4DBE0F900F900F90E3
:103BC000CF91DF911F910F91FF90EF90DF90CF90F9
:103BD000BF90AF909F908F907F906F905F904F902D
:103BE0003F902F900895CF92DF92EF92FF920F9324
:103BF0001F93DF93CF9300D000D0CDB7DEB78C01F9
:103C00007B016A0187E19AE09A83898381E19AE0E6
:103C10009C838B83C801BE016F5F7F4F42E024EF1E
:103C200031E00E94241D8130E1F0882399F4C8011D
:103C3000B701A60124EF31E00E949B1C0F5B1F4FD0
:103C4000C8016BE07AE00E943917C801B7010E94F1
:103C5000E31806C0C70161E07AE0A6010E943308BC
:103C600080E00F900F900F900F90CF91DF911F91F8
:103C70000F91FF90EF90DF90CF9008952F923F9299
:103C80004F925F926F927F928F929F92AF92BF926C
:103C9000CF92DF92FF920F931F93DF93CF930F92F8
:103CA000CDB7DEB75C016B012A01FC018485882356
:103CB00061F085010F5B1F4FC80166E37BE00E9446
:103CC0003917C801B6010E948417F601F490FF204D
:103CD00039F186011E010894211C311C6F2C7724B8
:103CE00046010894811C911C13C089818F1519F419
:103CF0000F5F1F4F09C0992787FD9095861597057F
:103D000011F0860101C08401F801F490FF2041F018
:103D1000C501B101A2010E94E61B882331F701C051
:103D200081E00F90CF91DF911F910F91FF90DF9075
:103D3000CF90BF90AF909F908F907F906F905F904B
:103D40004F903F902F900895CF93DF93EC018D8596
:103D5000882379F0CE016CEF7AE00E943917CE010A
:103D600065EF7AE044EF51E00E943E1E882319F08F
:103D70001D8681E008C0CE018F5B9F4F64EE7AE024
:103D80000E94841780E0DF91CF910895FC01868521
:103D90009785019797878687892B11F081E0089591
:103DA000CF010E94A41E08956F927F928F929F92DE
:103DB000AF92BF92CF92DF92EF92FF920F931F9339
:103DC000DF93CF930F92CDB7DEB74C017B015A0141
:103DD0006115710549F1FB018081882329F18B016F
:103DE0003E010894611C711C6B010894C11CD11C1C
:103DF00013C09981F8018081981719F40F5F1F4F44
:103E000007C0F7018081981711F0870101C0860172
:103E1000F8018081882341F0C401B301A5010E940B
:103E2000E61B882331F701C081E00F90CF91DF912D
:103E30001F910F91FF90EF90DF90CF90BF90AF90C8
:103E40009F908F907F906F900895AF92BF92CF9286
:103E5000DF92FF920F931F93DF93CF930F92CDB713
:103E6000DEB76C018E010F5F1F4F46C089818C3316
:103E700009F042C08093DE050FED15E0FF24F394B6
:103E80005E010894A11CB11CC601B50144EF51E0CC
:103E90000E94E61B8823C9F18981F8018083F3948D
:103EA0008E3321F5C601B50144EF51E00E94E61BB7
:103EB000882359F18981803241F5EF2DF0E0E252FB
:103EC000FA4F8083F394EF2DF0E0E252FA4F108224
:103ED00081E08093DD05C60160E070E040E050E0E5
:103EE00024EF31E00E949B1C81E010C00F5F1F4F48
:103EF000FCE0FF1649F609C0C601B80144EF51E0E5
:103F00000E94E61B882309F0B1CF80E00F90CF918B
:103F1000DF911F910F91FF90DF90CF90BF90AF90F6
:103F200008951F93CF93DF93EC01AB018091DD05E2
:103F3000882371F4CE010E94251F182F882371F465
:103F4000CE018F5B9F4F66E17BE00E94841706C025
:103F5000CE016EED75E00E94D41E182F812FDF91E7
:103F6000CF911F910895DF92EF92FF920F931F93CD
:103F7000CF93DF93EC018D85882311F081E072C02F
:103F80006AEF70E080E090E00E946B13DC2E0D2F52
:103F9000CE0162E17BE00E9439176AEF70E080E0B9
:103FA00090E00E946B13CE016CE07BE044EF51E0A7
:103FB0000E943E1E882301F18091DD05882309F0CF
:103FC0004AC010E0AFE3EA2EF12CEC0EFD1ED70143
:103FD000ED91FC91A081B1812D913C91CF016DE0DB
:103FE000F9010995CE0164EF71E00E94911F8823C9
:103FF00091F51F5F153059F7EF96E881F981EF973A
:10400000A081B1812D913C91CF016DE0F90109951D
:10401000CE0164EF71E00E94911F8823E1F410E06B
:104020006AEF70E080E090E00E946B138D2D902F7E
:1040300068E07BE00E9439176AEF70E080E090E072
:104040000E946B13CE0162E07BE044EF51E00E94DE
:104050003E1E882319F081E08D8704C01F5F153054
:10406000F9F680E0DF91CF911F910F91FF90EF90D3
:10407000DF900895CF93DF93EC018D85882329F499
:10408000CE010E94B31F882331F08E859F85019653
:104090009F878E8781E0DF91CF9108951F93CF9303
:1040A000DF93EC010E943A208823D1F0CE016BEF20
:1040B00079E00E943917CE0163EF79E044EF51E0D7
:1040C0000E943E1E882311F410E006C0CE0164EF6A
:1040D00071E00E94911F11E0CE010E94C61E812F47
:1040E000DF91CF911F9108958F929F92AF92BF92CF
:1040F000CF92DF92EF92FF920F931F93DF93CF93B4
:10410000CDB7DEB760970FB6F894DEBF0FBECDBF58
:104110007C014B015A0169010E943A20882311F465
:1041200010E080C0C701B4010E943917C114D10446
:1041300079F1D701ED91FC910190F081E02DC7015B
:1041400060E209950023F9F086018FE4C82ED12C96
:10415000CE0CDF1C11C0D701ED91FC91603239F417
:104160000190F081E02DC701D6016C9104C001904F
:10417000F081E02DC7010995F8010F5F1F4F649191
:10418000662349F735C0C701B6010E94391730C010
:10419000A114B10469F1D701ED91FC910190F08176
:1041A000E02DC70160E209950023F1F08501BFE42D
:1041B000CB2ED12CCE0CDF1C11C0D701ED91FC9180
:1041C000603239F40190F081E02DC701D6016C9185
:1041D00004C00190F081E02DC7010995F8016191BB
:1041E0008F01662351F704C0C701B5010E94E01892
:1041F000D701ED91FC910190F081E02DC7016DE0B8
:104200000995C701BE016F5F7F4F40E150E00E94FA
:10421000F31D182FC70164EF71E00E94911FC701C1
:104220000E94C61E812F60960FB6F894DEBF0FBEA7
:10423000CDBFCF91DF911F910F91FF90EF90DF9055
:10424000CF90BF90AF909F908F9008950F93AB0148
:1042500065E078E020E030E001E00E9474200F91FA
:1042600008950F9363E178E040E050E020E030E013
:1042700000E00E9474200F910895EF92FF920F9337
:104280001F937C01AB016AED77E020E030E001E0B4
:104290000E947420182FC7010E943121812F1F9185
:1042A0000F91FF90EF9008950F93DF93CF9300D07D
:1042B000CDB7DEB76A3010F080E00DC0605D698375
:1042C0001A8267EE78E0AE014F5F5F4F20E030E08A
:1042D00000E00E9474200F900F90CF91DF910F911A
:1042E000089561E00E94542108950F93AB0164EB9F
:1042F00079E020E030E000E00E9474200F91089502
:10430000AF92BF92CF92DF92EF92FF920F931F93E3
:10431000DF93CF93CDB7DEB72B970FB6F894DEBF00
:104320000FBECDBF6C015B01CA01B901402F7E01F8
:104330000894E11CF11C97010BE010E00E94321977
:10434000C601B501A70120E030E000E00E94742022
:104350002B960FB6F894DEBF0FBECDBFCF91DF9185
:104360001F910F91FF90EF90DF90CF90BF90AF9093
:1043700008950F93262F30E040E050E065E678E0A6
:1043800000E10E9480210F9108950F93262F30E0C5
:1043900040E050E067ED78E000E10E9480210F915D
:1043A00008950F939B0140E050E067E779E00AE051
:1043B0000E9480210F910895CF92DF92EF92FF9299
:1043C0000F931F93DF93CF93CDB7DEB760970FB6F0
:1043D000F894DEBF0FBECDBF8C010E943A20882327
:1043E00051F4C8018F5B9F4F68EA7AE00E948417FE
:1043F000EE24FF247AC0C80160EA7AE00E943917EF
:10440000C8016E010894C11CD11CB60140E150E006
:1044100024EF31E00E949B1C7C01C801B6010E9480
:10442000DB1B882351F0C801B60140E150E024EFC6
:1044300031E00E949B1C7C0105C0C80164EF71E063
:104440000E94911FCE01019625E0E216F10434F09E
:10445000ECEFFFEFEE0EFF1E8E0D9F1D0E94F21976
:104460007B01862F8F70F80181AFC70154E09695CC
:1044700087955A95E1F7817082AFC70145E096951F
:1044800087954A95E1F7817083AFC70136E096952D
:1044900087953A95E1F7817084AFC701880F892F1E
:1044A000881F990B9195817085AF8F2D86958F70A0
:1044B00086AFC8010E94C61EF80181AD9485813087
:1044C00049F487AB992389F0C8018F5B9F4F6AE855
:1044D0007AE009C0F80117AA992339F0C8018F5B67
:1044E0009F4F61E77AE00E948417C70160960FB67C
:1044F000F894DEBF0FBECDBFCF91DF911F910F911A
:10450000FF90EF90DF90CF9008952F923F924F92BF
:104510005F926F927F928F929F92AF92BF92CF9253
:10452000DF92EF92FF920F931F93DF93CF9300D010
:10453000CDB7DEB78C014B015A012DB73EB73A8398
:1045400029838F5B9F4F66ED7AE00E948417C50137
:1045500001972DB73EB7281B390B0FB6F8943EBF15
:104560000FBE2DBF8DB79EB701961C01C8010E94DA
:104570003A20882309F457C0C8016CEC7AE00E9405
:104580003917C80160EC7AE048EC52E30E943E1E05
:10459000882319F4442455240BC0C801B401A50193
:1045A00024EF31E00E949B1CC4010E94FB072C01F8
:1045B000C80160E070E040E050E024EF31E00E948C
:1045C0009B1C7501CC24DD2422C0C801B101A501CA
:1045D00020EA3FE00E949B1C3C0101968E159F053E
:1045E0008CF4EA14FB0429F4C401B1010E944D08C3
:1045F00009C0C40169E171E00E944208C401B1012F
:104600000E944208E618F7080894C11CD11CC41483
:10461000D504DCF2C80164EF71E00E94911FC8016B
:104620000E94C61E81E029813A810FB6F8943EBFF0
:104630000FBE2DBF0F900F90CF91DF911F910F9163
:10464000FF90EF90DF90CF90BF90AF909F908F90B2
:104650007F906F905F904F903F902F900895CF92F2
:10466000DF92EF92FF920F931F93CF93DF938C0112
:10467000EB017A0169010E943A20882351F1CC0FA5
:10468000DD1FCC0FDD1FFE01E258FE4F60817181FE
:10469000C8010E943917C058DE4F68817981C8016E
:1046A00044EF51E00E943E1E882381F0C801B7010B
:1046B000A60124EF31E00E949B1CC80164EF71E069
:1046C0000E94911FC8010E94C61E07C0C8010E9417
:1046D000C61E6BE1E62E61E0F62EC701DF91CF9199
:1046E0001F910F91FF90EF90DF90CF9008950F935F
:1046F0001F93DF93CF93CDB7DEB760970FB6F894D3
:10470000DEBF0FBECDBF6CE070E08E010F5F1F4FAC
:10471000A80120E130E00E942F23892BB9F1C801C4
:1047200065E67AE043E050E00E942508892B11F409
:1047300080E02DC0C80162E67AE042E050E00E94CD
:104740002508892B11F481E022C0C8016BE57AE0CD
:1047500046E050E00E942508892B11F482E017C042
:10476000C80165E57AE045E050E00E942508892B04
:1047700011F483E00CC0C8016EE47AE046E050E03A
:104780000E942508892B11F484E001C08FEF609608
:104790000FB6F894DEBF0FBECDBFCF91DF911F9152
:1047A0000F910895FF920F931F93DF93CF93CDB78F
:1047B000DEB72B970FB6F894DEBF0FBECDBFF42E39
:1047C0008E010F5F1F4FA8012BE030E00E942F23C6
:1047D000892B29F420E030E040E050E02EC08AE050
:1047E000F81631F520E030E040E050E01CC08F2D9D
:1047F00080538A3010F5CA01B9012AE030E040E068
:1048000050E00E94F52D2F2D332727FD3095432FA3
:10481000532F2053304040405040260F371F481F31
:10482000591F0F5F1F4FF801F080FF2001F705C0EF
:10483000C8010E94F2199B01AC01B901CA012B9673
:104840000FB6F894DEBF0FBECDBFCF91DF911F91A1
:104850000F91FF9008956BE170E040E10E94D22338
:10486000862F08950F93CF93DF93EC011CAA1BAA08
:104870001B8A6FE67CE040E050E020E030E000E0A2
:104880000E947420882339F4CE018F5B9F4F67E527
:104890007CE00E948417CE0164E47CE040E050E0BC
:1048A00020E030E000E00E947420882339F4CE013B
:1048B0008F5B9F4F67E27CE00E948417CE0165E129
:1048C0007CE040E050E020E030E000E00E94742016
:1048D000882339F4CE018F5B9F4F6BEF7BE00E9402
:1048E0008417CE010E94DC21CE010E947723882309
:1048F00011F490E004C090E0843009F091E0988BCE
:10490000CE010E942B24C15BDF4F8883DF91CF91C2
:104910000F910895CF93DF93EC010E943A208823F2
:1049200001F1CE016BEE79E00E943917CE0162EE03
:1049300079E044EF51E00E943E1E882329F4CE0125
:104940000E94C61E80E00DC068E873E180E090E040
:104950000E946B131D861F861E86CE010E94322484
:1049600081E0DF91CF910895CF93DF93EC01C35B9A
:10497000DF4F598348832E9779836883EF97CE0161
:104980000E94B31F882331F4CE018F5B9F4F6EEDE1
:104990007BE00FC0CE010E943224CE010E94A41EF3
:1049A000882311F081E008C0CE018F5B9F4F62EC3D
:1049B0007BE00E94841780E0DF91CF910895FB0196
:1049C0009A0164E070E0AF010E942F230895FB017B
:1049D0009A0163E070E0AF010E942F230895FF92D7
:1049E0000F931F93DF93CF93CDB7DEB766970FB6C4
:1049F000F894DEBF0FBECDBF60E070E08E010F5FA8
:104A00001F4FA80126E130E00E942F23892B19F4C3
:104A100060E070E037C080E0A80103C08F5FEA3338
:104A200031F0FA01E80FF11DE081EE23B9F78E01B4
:104A30000F5F1F4F080F111D20E030E040E050E0F5
:104A40001CC08F2D80538A30E0F4CA01B9012AE0DE
:104A500030E040E050E00E94F52D2F2D332727FD58
:104A60003095432F532F2053304040405040260F65
:104A7000371F481F591F0F5F1F4FF801F080FF209D
:104A800001F7B901CB0166960FB6F894DEBF0FBEF1
:104A9000CDBFCF91DF911F910F91FF9008950F939C
:104AA0001F93162F072F9A0160E070E0412F502FBF
:104AB0000E942F23892B29F4812F902F9C01F9012B
:104AC0000BC0812F902F9C01F90101C0319680818C
:104AD000882311F08A33D1F71082812F902F1F91F4
:104AE0000F910895CF92DF92EF92FF921F93CF9391
:104AF000DF936C019B016091F005662309F144236B
:104B000019F02F5F3F4F41E09091F105940F15C0D0
:104B1000F9015491552309F44AC0993010F0E0E0AE
:104B200001C0E92F9F5FF0E0EE50FA4F80818517BA
:104B300009F05BC02F5F3F4F4F5F461748F304C03B
:104B4000442311F42F5F3F4FE9012196F90114919D
:104B500091E4E92EF12CEC0CFD1C32C09093FA0587
:104B6000993010F01092FA058091F0058F5F8093D4
:104B7000F0058930D0F1C70166EA7BE00E94841716
:104B800034C09093FA05993010F01092FA05809194
:104B9000F0058F5F8093F005893028F0C7016AE83F
:104BA0007BE00E948417FE011491112341F41092BE
:104BB000F0051092F1051092FA0581E017C02196D8
:104BC0006091FA0570E06E507A4FC60144EF51E0F3
:104BD0000E94E61B9091FA05E92FF0E0EE50FA4FA3
:104BE00080819F5F811769F2B9CF80E0DF91CF911B
:104BF0001F91FF90EF90DF90CF900895CF93DF93B8
:104C0000EC01462F6CE77BE00E947225882311F0AF
:104C100081E08FABDF91CF910895CF93DF93EC01CB
:104C2000462F63E87BE00E947225882311F01FAABB
:104C300081E0DF91CF910895CF92DF92EF92FF92C2
:104C40000F931F93CF93DF93EC013FE3E32EF12CFF
:104C5000E80EF91ED701ED91FC91A081B181149667
:104C60002D913C911597CF01F90109956C0118160A
:104C700019060CF04FC08C858823B9F08E010F5BAC
:104C80001F4FC80169E67BE00E943917F701A08138
:104C9000B181ED91FC9111970084F185E02DCD015A
:104CA0000995682FC8010E9498172FE3E22EF12C76
:104CB000EC0EFD1ED701ED91FC91A081B1811896FB
:104CC0002D913C911997CF01F90109958A9711F51A
:104CD0008FA9882349F0CE0161E00E940D26882328
:104CE00039F02FEF3FEF1BC0CE0161E00E94FE259F
:104CF0000091F00510E0F701A081B181ED91FC91E8
:104D000011970480F581E02DCD0109959C01200FBC
:104D1000311F05C08091F0059601280F311DC90192
:104D2000DF91CF911F910F91FF90EF90DF90CF9087
:104D30000895CF93DF93EC012091F0052223A1F099
:104D40008091F105E82FF0E0EE50FA4F90818F5FEF
:104D50008093F105893010F01092F105E92FF0E011
:104D600021502093F00531C0EF96A881B981EF97CB
:104D7000ED91FC9111970680F781E02DCD01099509
:104D8000FC018FA9882309F1EA32F105F1F4CE0183
:104D900060E00E940D26882319F0EFEFFFEF15C0A9
:104DA0008091F105E82FF0E0EE50FA4F90818F5F8F
:104DB0008093F105893010F01092F105E92FF0E0B1
:104DC0008091F00581508093F005CF01DF91CF9164
:104DD0000895CF92DF92EF92FF920F931F93DF938C
:104DE000CF930F92CDB7DEB77C018B016E01089493
:104DF000C11CD11CC701B601A8010E94E61B882373
:104E0000C9F70F90CF91DF911F910F91FF90EF9015
:104E1000DF90CF9008950F931F93CF93DF93EC0112
:104E20008FA9882391F1CE0164EF71E00E94E926F9
:104E3000CE010E943A20CE0162EF75E00E94391740
:104E4000CE016BEE75E044EF51E00E943E1E8E01F4
:104E50000F5B1F4F882351F0CE010E94C61EC80170
:104E600069ED75E00E9484171FAA0FC0C80160ECAD
:104E700075E00E948417CE010E94DC21CE010E94C1
:104E8000C61E20E08FA9882309F421E0822FDF913C
:104E9000CF911F910F9108950F931F938C016DE295
:104EA00077E00E943917C80164E670E00E94E926A5
:104EB000F80112AE81E01F910F910895AF92BF9259
:104EC000CF92DF92EF92FF920F931F93DF93CF93D6
:104ED00000D000D0CDB7DEB78C017B015A018CE445
:104EE00097E09A83898380E497E09C838B83C80151
:104EF0000E943A20882309F448C0D02EC12EC80150
:104F00006AE377E00E943917E114F10421F0C80147
:104F1000B7010E94E0188D2D9C2D68E377E00E9478
:104F20003917C801BE016F5F7F4F42E095010E94B3
:104F3000241DF82EC80164E670E00E94E92681E095
:104F4000F816F9F4F801F2AE8089882361F0C801FF
:104F500064E377E048E95AE30E943E1EC80164E634
:104F600070E00E94E926C80160E070E040E050E097
:104F700024EF31E00E949B1CC8010E94C61E81E004
:104F800004C0C8010E94C61E80E00F900F900F90D1
:104F90000F90CF91DF911F910F91FF90EF90DF90D5
:104FA000CF90BF90AF900895EF92FF920F931F9311
:104FB000DF93CF93CDB7DEB7C054D0400FB6F8948F
:104FC000DEBF0FBECDBF7C018E010F5F1F4FB8014A
:104FD00040E450E00E94DF24C701B80140E25EE4F3
:104FE0000E945E27C05CDF4F0FB6F894DEBF0FBE95
:104FF000CDBFCF91DF911F910F91FF90EF9008955A
:105000000F931F93CF93DF93FC01738D769571708F
:10501000A685B7859585772329F08C91892309F496
:1050200054C004C08C91892309F04FC083899489AE
:1050300020E001972FEF8F3F9207D9F7C589D689D6
:10504000A685B785158560E031E040E050E000E0DE
:10505000CE01202F01972FEF8F3F9207D9F78C9128
:10506000812311F0632B03C0832F80956823330FB6
:105070004F5F5F4F4830510559F78789908D20E089
:1050800001972FEF8F3F9207D9F7711160958091AB
:105090003D0620913E0690E001968F73907030E0BF
:1050A0008217930779F0E0913D06F0E0E350FA4F64
:1050B000608380913D0690E001968F73907080939D
:1050C0003D0603C0838D8160838FDF91CF911F9157
:1050D0000F9108951F920F920FB60F9211242F93E4
:1050E0003F934F935F936F937F938F939F93AF9370
:1050F000BF93EF93FF938091FB059091FC05009780
:1051000011F00E940028FF91EF91BF91AF919F9104
:105110008F917F916F915F914F913F912F910F9060
:105120000FBE0F901F9018951F920F920FB60F92FF
:1051300011242F933F934F935F936F937F938F939C
:105140009F93AF93BF93EF93FF938091FB05909153
:10515000FC05009711F00E940028FF91EF91BF918C
:10516000AF919F918F917F916F915F914F913F91FF
:105170002F910F900FBE0F901F9018951F920F92B6
:105180000FB60F9211242F933F934F935F936F931A
:105190007F938F939F93AF93BF93EF93FF938091F0
:1051A000FB059091FC05009711F00E940028FF91EB
:1051B000EF91BF91AF919F918F917F916F915F918F
:1051C0004F913F912F910F900FBE0F901F90189508
:1051D000CF92DF92EF92FF920F931F93CF93DF93C3
:1051E000EC017A018B011A8E198E188E1F8A1E8A85
:1051F0001D8A1C8A1B8A20E030E06901CC0CDD1C72
:10520000C20ED31EB601660F771F660F771FAB0164
:105210004154524FFA0185919591A591B4918E1503
:105220009F05A007B107E9F4FB01ED53F24F85910B
:1052300094919C8B8B8BFB01EB53F24F8591949156
:105240009E8B8D8BFB01E953F24F85919491988F42
:105250008F8BFB01E753F24F859194919A8F898F41
:1052600006C02F5F3F4F2D30310509F0C6CF8F8923
:10527000988D892B09F449C04C85463108F03DC012
:1052800090916800483010F484E005C04E3010F072
:1052900082E001C081E0892B80936800483028F4C7
:1052A000EDE6F0E0ADE6B0E00BC04E3028F0ECE605
:1052B000F0E0ACE6B0E004C0EBE6F0E0ABE6B0E076
:1052C0005081483040F481E090E002C0880F991F7F
:1052D0004A95E2F710C0242F30E04E3018F42850E1
:1052E000304002C02E50304081E090E002C0880F74
:1052F000991F2A95E2F7852B8C93898D9A8D20E052
:1053000001972FEF8F3F9207D9F78091FB0590917E
:10531000FC058C179D0781F08B8D8E7F8B8F9FB73F
:10532000F89410923D0680913D0680933E06D093FE
:10533000FC05C093FB059FBFDF91CF911F910F919B
:10534000FF90EF90DF90CF900895FC0144854631A7
:1053500080F5483028F4EDE6F0E0ADE6B0E00BC0B3
:105360004E3028F4EBE6F0E0ABE6B0E004C0ECE64B
:10537000F0E0ACE6B0E05081483040F481E090E0ED
:1053800002C0880F991F4A95E2F710C0242F30E021
:105390004E3018F42850304002C02E50304081E08A
:1053A00090E002C0880F991F2A95E2F78095852327
:1053B0008C930895FC0182EF91E091838083CF016B
:1053C0000E94A52908952091FB053091FC0528171E
:1053D000390731F490913E0680913D06981719F4F3
:1053E0002FEF3FEF0FC0E0913E06F0E0E350FA4FA1
:1053F000208180913E0690E001968F73907080939B
:105400003E0630E0C90108952091FB053091FC056E
:105410002817390719F020E030E00EC080913D06D2
:1054200020913E0690E0805C9F4F821B910960E4D2
:1054300070E00E94282E9C01C90108950F931F93CC
:10544000DC0159968D919C915A97892B49F481E002
:1054500090E013969C938E93129720E030E097C0D3
:105460000FB7F8945B968C915B975196ED91FC91F8
:10547000529750962C91509781FF8DC08081822B3E
:10548000808359968D919C915A97059620E00197BB
:105490002FEF8F3F9207D9F75B968C915B9781FF37
:1054A00035C031E040E050E070E010E0832F90E044
:1054B000862397235196ED91FC91529750962C910B
:1054C0005097892B29F0808120952823208303C0C1
:1054D0008081822B808359968D919C915A97212FA0
:1054E00001972FEF8F3F9207D9F7330F4F5F5F4F31
:1054F00048305105D9F65196ED91FC915297908123
:1055000050968C9150978095892333C031E040E0CC
:1055100050E070E010E0832F90E0862397235196AF
:10552000ED91FC91529750962C915097892B21F038
:105530008081822B808304C0808120952823208352
:1055400059968D919C915A97212F01972FEF8F3F5C
:105550009207D9F7330F4F5F5F4F48305105D9F6A7
:105560005196ED91FC915297808150969C91509765
:10557000892B80830FBF59968D919C915A9720E07B
:1055800001972FEF8F3F9207D9F721E030E0C90153
:105590001F910F910895808120952823208371CF3A
:1055A0002091FB053091FC052817390749F49FB776
:1055B000F89410923D0680913D0680933E069FBF71
:1055C00008952091FB053091FC052817390731F427
:1055D00090913E0680913D06981719F42FEF3FEF0A
:1055E0000AC0E0913E06F0E0E350FA4F8081282F98
:1055F000332727FD3095C90108951F93CF93DF937B
:10560000EC01162F862F60E00E94FF138B8D81FD29
:1056100004C0812F61E00E943E141C87212F30E0DE
:10562000C90188569A4FFC0184918D872C573A4FB7
:10563000F9016491E62FF0E0EE0FFF1FE658FA4FF4
:10564000859194919F878E87DF91CF911F910895C7
:10565000FF920F931F938C01F62E862F61E00E941C
:10566000FF138F2D61E00E943E148F2D90E0FC010E
:10567000E856FA4FE491D8015096EC9350978C5726
:105680009A4FFC016491E62FF0E0EE0FFF1FE05906
:10569000FA4F8591949152969C938E9351971F91B6
:1056A0000F91FF900895FF920F931F938C01F62E98
:1056B000FC011382128288EE93E0A0E0B0E08483C4
:1056C0009583A683B78382EF91E091838083148AC8
:1056D000138A168A158A108E178A128E118E838D60
:1056E0002170220F8C7F822B838FC801642F0E9430
:1056F000282BC8016F2D0E94FD2A1F910F91FF904A
:105700000895803209F0911138C280528F55E0F728
:1057100008955058BB27AA270ED04DC13ED130F076
:1057200043D120F031F49F3F11F41EF433C10EF445
:10573000E095E7FB29C1E92F4FD180F3BA17620743
:1057400073078407950718F071F49EF567C10EF48E
:10575000E0950B2EBA2FA02D0B01B90190010C0181
:10576000CA01A0011124FF27591B99F0593F50F499
:10577000503E68F11A16F040A22F232F342F4427F1
:10578000585FF3CF469537952795A795F0405395E9
:10579000C9F77EF41F16BA0B620B730B840BBAF0B9
:1057A0009150A1F0FF0FBB1F661F771F881FC2F724
:1057B0000EC0BA0F621F731F841F48F48795779538
:1057C0006795B795F7959E3F08F0B3CF9395880FEF
:1057D00008F09927EE0F9795879508950CD0EBC0A8
:1057E000E3D040F0DAD030F021F45F3F19F0CCC0C4
:1057F000511115C1CFC0F0D098F39923C9F35523A7
:10580000B1F3951B550BBB27AA27621773078407B3
:1058100038F09F5F5F4F220F331F441FAA1FA9F369
:1058200033D00E2E3AF0E0E830D091505040E6955B
:10583000001CCAF729D0FE2F27D0660F771F881FBC
:10584000BB1F261737074807AB07B0E809F0BB0BAB
:10585000802DBF01FF2793585F4F2AF09E3F5105CF
:1058600068F092C0DCC05F3FECF3983EDCF38695B5
:1058700077956795B795F7959F5FC9F7880F911D45
:105880009695879597F90895E1E0660F771F881F31
:10589000BB1F621773078407BA0720F0621B730BE4
:1058A000840BBA0BEE1F88F7E095089504D0689436
:1058B000B111B5C0089598D088F09F5790F0B92FD6
:1058C0009927B751A0F0D1F0660F771F881F991F55
:1058D0001AF0BA95C9F712C0B13081F09FD0B1E08B
:1058E00008959CC0672F782F8827B85F39F0B93F9B
:1058F000CCF3869577956795B395D9F73EF4909557
:105900008095709561957F4F8F4F9F4F0895E894D4
:1059100009C097FB3EF490958095709561957F4FF7
:105920008F4F9F4F9923A9F0F92F96E9BB279395A5
:10593000F695879577956795B795F111F8CFFAF4B5
:10594000BB0F11F460FF1BC06F5F7F4F8F4F9F4FE6
:1059500016C0882311F096E911C0772321F09EE844
:10596000872F762F05C0662371F096E8862F70E0AA
:1059700060E02AF09A95660F771F881FDAF7880F84
:105980009695879597F9089597F99F6780E870E055
:1059900060E008959FEF80EC089500240A941616A5
:1059A000170618060906089500240A94121613060D
:1059B000140605060895092E0394000C11F488239B
:1059C00052F0BB0F40F4BF2B11F460FF04C06F5FB7
:1059D0007F4F8F4F9F4F089557FD9058440F551F8D
:1059E00059F05F3F71F04795880F97FB991F61F061
:1059F0009F3F79F087950895121613061406551FD8
:105A0000F2CF4695F1DF08C0161617061806991F43
:105A1000F1CF86957105610508940895E894BB2738
:105A200066277727CB0197F908950EF0A9C0B2CF6A
:105A30006894AACFD9DFC8F39923D1F3C6F3DF93D3
:105A4000CF931F930F93FF92C92FDD2788232AF04E
:105A50002197660F771F881FDAF720E030E040E8D3
:105A60005FEB9FE3883920F0803E30F021968F77FE
:105A700051DEE8E6F0E003C04DDEE5E9F0E090D06D
:105A80008B01BE01EC01FB2E6F5771097595771FD5
:105A9000880B990B3EDF28E132E741E35FE316D044
:105AA000AF2D9801AE01FF900F911F91CF91DF9123
:105AB00042DE81CF0BD07FCF70DF28F075DF18F08A
:105AC000952309F061CF66CF1124A9CF85DFA0F31C
:105AD000959FD1F3950F50E0551F629FF001729F83
